{
  "contractName": "ApprovalContract",
  "abi": [
    {
      "constant": true,
      "inputs": [],
      "name": "approver",
      "outputs": [
        {
          "name": "",
          "type": "address"
        }
      ],
      "payable": false,
      "stateMutability": "view",
      "type": "function",
      "signature": "0x141a8dd8"
    },
    {
      "constant": true,
      "inputs": [],
      "name": "sender",
      "outputs": [
        {
          "name": "",
          "type": "address"
        }
      ],
      "payable": false,
      "stateMutability": "view",
      "type": "function",
      "signature": "0x67e404ce"
    },
    {
      "constant": true,
      "inputs": [],
      "name": "receiver",
      "outputs": [
        {
          "name": "",
          "type": "address"
        }
      ],
      "payable": false,
      "stateMutability": "view",
      "type": "function",
      "signature": "0xf7260d3e"
    },
    {
      "constant": false,
      "inputs": [
        {
          "name": "_receiver",
          "type": "address"
        }
      ],
      "name": "deposit",
      "outputs": [],
      "payable": true,
      "stateMutability": "payable",
      "type": "function",
      "signature": "0xf340fa01"
    },
    {
      "constant": true,
      "inputs": [],
      "name": "viewApprover",
      "outputs": [
        {
          "name": "",
          "type": "address"
        }
      ],
      "payable": false,
      "stateMutability": "pure",
      "type": "function",
      "signature": "0xd93ce89c"
    },
    {
      "constant": false,
      "inputs": [],
      "name": "approve",
      "outputs": [],
      "payable": false,
      "stateMutability": "nonpayable",
      "type": "function",
      "signature": "0x12424e3f"
    }
  ],
  "bytecode": "0x608060405234801561001057600080fd5b50610442806100206000396000f3fe608060405260043610610078576000357c0100000000000000000000000000000000000000000000000000000000900463ffffffff16806312424e3f1461007d578063141a8dd81461009457806367e404ce146100eb578063d93ce89c14610142578063f340fa0114610199578063f7260d3e146101dd575b600080fd5b34801561008957600080fd5b50610092610234565b005b3480156100a057600080fd5b506100a9610304565b604051808273ffffffffffffffffffffffffffffffffffffffff1673ffffffffffffffffffffffffffffffffffffffff16815260200191505060405180910390f35b3480156100f757600080fd5b5061010061031c565b604051808273ffffffffffffffffffffffffffffffffffffffff1673ffffffffffffffffffffffffffffffffffffffff16815260200191505060405180910390f35b34801561014e57600080fd5b50610157610341565b604051808273ffffffffffffffffffffffffffffffffffffffff1673ffffffffffffffffffffffffffffffffffffffff16815260200191505060405180910390f35b6101db600480360360208110156101af57600080fd5b81019080803573ffffffffffffffffffffffffffffffffffffffff16906020019092919050505061035d565b005b3480156101e957600080fd5b506101f26103f0565b604051808273ffffffffffffffffffffffffffffffffffffffff1673ffffffffffffffffffffffffffffffffffffffff16815260200191505060405180910390f35b7331c99b4163e8b6e5d9e52e862acb8b069e5a628b73ffffffffffffffffffffffffffffffffffffffff163373ffffffffffffffffffffffffffffffffffffffff1614151561028257600080fd5b600160009054906101000a900473ffffffffffffffffffffffffffffffffffffffff1673ffffffffffffffffffffffffffffffffffffffff166108fc3073ffffffffffffffffffffffffffffffffffffffff16319081150290604051600060405180830381858888f19350505050158015610301573d6000803e3d6000fd5b50565b7331c99b4163e8b6e5d9e52e862acb8b069e5a628b81565b6000809054906101000a900473ffffffffffffffffffffffffffffffffffffffff1681565b60007331c99b4163e8b6e5d9e52e862acb8b069e5a628b905090565b60003411151561036c57600080fd5b336000806101000a81548173ffffffffffffffffffffffffffffffffffffffff021916908373ffffffffffffffffffffffffffffffffffffffff16021790555080600160006101000a81548173ffffffffffffffffffffffffffffffffffffffff021916908373ffffffffffffffffffffffffffffffffffffffff16021790555050565b600160009054906101000a900473ffffffffffffffffffffffffffffffffffffffff168156fea165627a7a723058202e168ad1d5c548adeb3d40468521d69695c3a1d55c45a629c1394531044378010029",
  "source": "pragma solidity ^0.5.0;\r\n\r\ncontract ApprovalContract {\r\naddress public sender;\r\naddress  payable public receiver;\r\naddress public constant approver= 0x31C99b4163E8b6E5D9E52e862AcB8B069E5A628B ;\r\n\r\nfunction deposit(address  payable  _receiver) external payable {\r\n  require(msg.value > 0); // the ether value must be positive while paying\r\n  sender = msg.sender;// will be saved in the smart ApprovalContract\r\n  receiver =_receiver;\r\n\r\n}\r\n\r\nfunction viewApprover() external pure returns(address){\r\n  return (approver);\r\n}\r\n//external do not cost gas\r\nfunction approve() external {\r\n  require(msg.sender == approver );\r\n  receiver.transfer(address(this).balance);//return the balance and sends it to the receipient\r\n  //transfer or send method to send the money\r\n  //transfer will throw an error ?\r\n  //we call on the account where the money is being transfered to\r\n\r\n}\r\n\r\n}\r\n",
  "sourcePath": "C:/Users/syrin/Desktop/smart_contract_Erhereum/contract/contracts/ApprovalContract.sol",
  "compiler": {
    "name": "solc",
    "version": "0.5.0+commit.1d4f565a.Emscripten.clang"
  },
  "schemaVersion": "3.0.5",
  "updatedAt": "2019-04-03T17:53:37.805Z",
  "devdoc": {
    "methods": {}
  },
  "userdoc": {
    "methods": {}
  }
}